:020000040800F2
:100000000000032031170008D5170008D717000893
:10001000D9170008DB170008DD17000800000000F2
:10002000000000000000000000000000DF170008D2
:10003000E117000800000000E3170008E5170008BA
:100040007D1700087D1700087D1700087D17000840
:100050007D1700087D1700087D1700087D17000830
:10006000751800087D1700087D1700087D17000827
:100070007D1700087D1700087D1700087D17000810
:100080007D1700087D1700087D1700087D17000800
:100090007D1700087D1700087D1700087D170008F0
:1000A0007D1700087D1700087D1700087D170008E0
:1000B0007D1700087D1700087D1700087D170008D0
:1000C0007D1700087D1700087D1700087D170008C0
:1000D0007D170008313600087D1700087D170008DD
:1000E0007D1700087D1700087D1700087D170008A0
:1000F0007D1700087D1700087D1700087D17000890
:100100007D17000871180008713700087D17000876
:100110007D1700087D1700087D1700087D1700086F
:100120007D1700087D1700087D1700086918000872
:100130007D1700087D1700087D1700087D1700084F
:100140007D1700087D1700087D1700087D1700083F
:100150007D1700086D1800087D1700087D1700083E
:100160007D1700087D1700087D1700087D1700081F
:100170007D1700087D1700087D17000800000000AB
:080180007D1700087D1700083F
:1001880081F0004102E000BF83F0004330B54FEA40
:1001980041044FEA430594EA050F08BF90EA020FAD
:1001A8001FBF54EA000C55EA020C7FEA645C7FEA40
:1001B800655C00F0E2804FEA5454D4EB5555B8BF63
:1001C8006D420CDD2C4480EA020281EA030382EAD4
:1001D800000083EA010180EA020281EA0303362D66
:1001E80088BF30BD11F0004F4FEA01314FF4801C39
:1001F8004CEA113102D0404261EB410113F0004F4B
:100208004FEA03334CEA133302D0524263EB430301
:1002180094EA050F00F0A780A4F10104D5F1200E9F
:100228000DDB02FA0EFC22FA05F2801841F10001FA
:1002380003FA0EF2801843FA05F359410EE0A5F1CE
:1002480020050EF1200E012A03FA0EFC28BF4CF0FF
:10025800020C43FA05F3C01851EBE37101F00045B5
:1002680007D54FF0000EDCF1000C7EEB00006EEBC2
:100278000101B1F5801F1BD3B1F5001F0CD349084C
:100288005FEA30004FEA3C0C04F101044FEA4452A3
:1002980012F5800F80F09A80BCF1004F08BF5FEA2A
:1002A800500C50F1000041EB045141EA050130BD0A
:1002B8005FEA4C0C404141EB010111F4801FA4F1AD
:1002C8000104E9D191F0000F04BF01460020B1FA02
:1002D80081F308BF2033A3F10B03B3F120020CDA3A
:1002E8000C3208DD02F1140CC2F10C0201FA0CF018
:1002F80021FA02F10CE002F11402D8BFC2F1200C7D
:1003080001FA02F120FA0CFCDCBF41EA0C01904032
:10031800E41AA2BF01EB0451294330BD6FEA04047B
:100328001F3C1CDA0C340EDC04F11404C4F1200266
:1003380020FA04F001FA02F340EA030021FA04F378
:1003480045EA030130BDC4F10C04C4F1200220FACF
:1003580002F001FA04F340EA0300294630BD21FA0D
:1003680004F0294630BD94F0000F83F4801306BFD3
:1003780081F480110134013D4EE77FEA645C18BFC7
:100388007FEA655C29D094EA050F08BF90EA020F5E
:1003980005D054EA000C04BF1946104630BD91EA56
:1003A800030F1EBF0021002030BD5FEA545C05D159
:1003B8004000494128BF41F0004130BD14F5800498
:1003C8003CBF01F5801130BD01F0004545F0FE410C
:1003D80041F470014FF0000030BD7FEA645C1ABF41
:1003E800194610467FEA655C1CBF0B46024650EA78
:1003F800013406BF52EA033591EA030F41F40021A4
:1004080030BD00BF90F0000F04BF0021704730B529
:100418004FF4806404F132044FF000054FF00001FE
:1004280050E700BF90F0000F04BF0021704730B5BF
:100438004FF4806404F1320410F0004548BF404294
:100448004FF000013EE700BF42004FEAE2014FEAE9
:1004580031014FEA02701FBF12F07F4393F07F4FC4
:1004680081F06051704792F0000F14BF93F07F4FF6
:10047800704730B54FF4607401F0004521F0004139
:1004880020E700BF50EA010208BF704730B54FF0BF
:1004980000050AE050EA010208BF704730B511F0C4
:1004A800004502D5404261EB41014FF4806404F1FC
:1004B80032045FEA915C3FF4DCAE4FF003025FEA7E
:1004C800DC0C18BF03325FEADC0C18BF033202EB06
:1004D800DC02C2F1200300FA03FC20FA02F001FA60
:1004E80003FE40EA0E0021FA02F11444C1E600BFFF
:1004F80070B54FF0FF0C4CF4E06C1CEA11541DBFB2
:100508001CEA135594EA0C0F95EA0C0F00F0DEF87C
:100518002C4481EA030621EA4C5123EA4C5350EA61
:10052800013518BF52EA033541F4801143F48013B2
:1005380038D0A0FB02CE4FF00005E1FB02E506F043
:100548000042E0FB03E54FF00006E1FB03569CF098
:10055800000F18BF4EF0010EA4F1FF04B6F5007F9E
:1005680064F5407404D25FEA4E0E6D4146EB060610
:1005780042EAC62141EA55514FEAC52040EA5E5099
:100588004FEACE2EB4F1FD0C88BFBCF5E06F1ED843
:10059800BEF1004F08BF5FEA500E50F1000041EB7A
:1005A800045170BD06F0004646EA010140EA020027
:1005B80081EA0301B4EB5C04C2BFD4EB0C0541EA49
:1005C800045170BD41F480114FF0000E013C00F35E
:1005D800AB8014F1360FDEBF002001F0004170BD82
:1005E800C4F10004203C35DA0C341BDC04F114049B
:1005F800C4F1200500FA05F320FA04F001FA05F227
:1006080040EA020001F0004221F0004110EBD370F3
:1006180021FA04F642EB06015EEA430E08BF20EA1F
:10062800D37070BDC4F10C04C4F1200500FA04F3C2
:1006380020FA05F001FA04F240EA020001F0004154
:1006480010EBD37041F100015EEA430E08BF20EAC7
:10065800D37070BDC4F1200500FA05F24EEA020E0F
:1006680020FA04F301FA05F243EA020321FA04F03E
:1006780001F0004121FA04F220EA020000EBD370F5
:100688005EEA430E08BF20EAD37070BD94F0000FF5
:100698000FD101F00046400041EB010111F4801F29
:1006A80008BF013CF7D041EA060195F0000F18BFDA
:1006B800704703F00046520043EB030313F4801F16
:1006C80008BF013DF7D043EA0603704794EA0C0FD0
:1006D8000CEA135518BF95EA0C0F0CD050EA4106E6
:1006E80018BF52EA4306D1D181EA030101F0004163
:1006F8004FF0000070BD50EA410606BF104619468B
:1007080052EA430619D094EA0C0F02D150EA013696
:1007180013D195EA0C0F05D152EA03361CBF1046D7
:1007280019460AD181EA030101F0004141F0FE4176
:1007380041F470014FF0000070BD41F0FE4141F4FA
:10074800780170BD70B54FF0FF0C4CF4E06C1CEAFA
:1007580011541DBF1CEA135594EA0C0F95EA0C0FAF
:1007680000F0A7F8A4EB050481EA030E52EA03356A
:100778004FEA013100F088804FEA03334FF080558B
:1007880045EA131343EA12634FEA022245EA1115B8
:1007980045EA10654FEA00260EF000419D4208BF69
:1007A800964244F1FD0404F5407402D25B084FEA16
:1007B8003202B61A65EB03055B084FEA32024FF4C2
:1007C80080104FF4002CB6EB020E75EB030E22BF1F
:1007D800B61A754640EA0C005B084FEA3202B6EBDF
:1007E800020E75EB030E22BFB61A754640EA5C008E
:1007F8005B084FEA3202B6EB020E75EB030E22BF1E
:10080800B61A754640EA9C005B084FEA3202B6EB1E
:10081800020E75EB030E22BFB61A754640EADC00DD
:1008280055EA060E18D04FEA051545EA16754FEA3F
:1008380006164FEAC30343EA52734FEAC2025FEA5D
:100848001C1CC0D111F4801F0BD141EA00014FF0EC
:1008580000004FF0004CB6E711F4801F04BF0143BD
:100868000020B4F1FD0C88BFBCF5E06F3FF6AFAED9
:10087800B5EB030C04BFB6EB020C5FEA500C50F169
:10088800000041EB045170BD0EF0004E4EEA1131EC
:1008980014EB5C04C2BFD4EB0C0541EA045170BDF3
:1008A80041F480114FF0000E013C90E645EA060E37
:1008B8008DE60CEA135594EA0C0F08BF95EA0C0F65
:1008C8003FF43BAF94EA0C0F0AD150EA01347FF4AD
:1008D80034AF95EA0C0F7FF425AF104619462CE784
:1008E80095EA0C0F06D152EA03353FF4FDAE1046E7
:1008F800194622E750EA410618BF52EA43067FF438
:10090800C5AE50EA41047FF40DAF52EA43057FF4C7
:10091800EBAE12E74FF0FF3C06E000BF4FF0010CD2
:1009280002E000BF4FF0010C4DF804CD4FEA410C36
:100938007FEA6C5C4FEA430C18BF7FEA6C5C1BD003
:1009480001B050EA410C0CBF52EA430C91EA030F84
:1009580002BF90EA020F0020704710F1000F91EAE1
:10096800030F58BF994208BF90422CBFD8176FEAAF
:10097800E37040F0010070474FEA410C7FEA6C5C7D
:1009880002D150EA013C07D14FEA430C7FEA6C5C84
:10099800D6D152EA033CD3D05DF8040B704700BFB0
:1009A8008446104662468C461946634600E000BFFE
:1009B80001B5FFF7B7FF002848BF10F1000F01BDD0
:1009C8004DF808EDFFF7F4FF0CBF012000205DF89B
:1009D80008FB00BF4DF808EDFFF7EAFF34BF012020
:1009E80000205DF808FB00BF4DF808EDFFF7E0FFB9
:1009F80094BF012000205DF808FB00BF4DF808ED0A
:100A0800FFF7CEFF94BF012000205DF808FB00BF70
:100A18004DF808EDFFF7C4FF34BF012000205DF852
:100A280008FB00BF4FEA4102B2F1E04324BFB3F52F
:100A3800001CDCF1FE5C0DD901F0004C4FEAC0024D
:100A48004CEA5070B2F1004F40EB830008BF20F031
:100A58000100704711F0804F21D113F13872BCBFEB
:100A680001F00040704741F480114FEA5252C2F140
:100A78001802C2F1200C10FA0CF320FA02F018BF89
:100A880040F001004FEAC1234FEAD32303FA0CFCDC
:100A980040EA0C0023FA02F34FEA4303CCE77FEA6B
:100AA800625307D150EA01331EBF4FF0FE4040F4B5
:100AB8004000704701F0004040F0FE4040F4000064
:100AC800704700BF80F0004002E000BF81F00041A5
:100AD80042001FBF5FEA410392EA030F7FEA226CDC
:100AE8007FEA236C6AD04FEA1262D2EB1363C1BF6C
:100AF800D218414048404140B8BF5B42192B88BFDB
:100B0800704710F0004F40F4000020F07F4018BFFD
:100B1800404211F0004F41F4000121F07F4118BF1D
:100B2800494292EA030F3FD0A2F1010241FA03FCC5
:100B380010EB0C00C3F1200301FA03F100F00043AD
:100B480002D5494260EB4000B0F5000F13D3B0F175
:100B5800807F06D340084FEA310102F10102FE2AE4
:100B680051D2B1F1004F40EBC25008BF20F0010054
:100B780040EA03007047490040EB000010F4000F02
:100B8800A2F10102EDD1B0FA80FCACF1080CB2EB95
:100B98000C0200FA0CF0AABF00EBC25052421843F4
:100BA800BCBFD0401843704792F0000F81F4000199
:100BB80006BF80F400000132013BB5E74FEA41036C
:100BC8007FEA226C18BF7FEA236C21D092EA030FD8
:100BD80004D092F0000F08BF0846704790EA010F52
:100BE8001CBF0020704712F07F4F04D1400028BF7F
:100BF80040F00040704712F100723CBF00F5000061
:100C0800704700F0004343F0FE4040F40000704796
:100C18007FEA226216BF08467FEA23630146420242
:100C280006BF5FEA412390EA010F40F48000704755
:100C38004FF0000304E000BF10F0004348BF4042FB
:100C48005FEA000C08BF704743F0964301464FF037
:100C580000001CE050EA010208BF70474FF0000393
:100C68000AE000BF50EA010208BF704711F00043D4
:100C780002D5404261EB41015FEA010C02BF8446A4
:100C88000146002043F0B64308BFA3F18053A3F503
:100C98000003BCFA8CF2083AA3EBC25310DB01FA4A
:100CA80002FC634400FA02FCC2F12002BCF1004FCE
:100CB80020FA02F243EB020008BF20F0010070475F
:100CC80002F1200201FA02FCC2F1200250EA4C00B3
:100CD80021FA02F243EB020008BF20EADC707047F9
:100CE8004FF0FF0C1CEAD0521EBF1CEAD15392EA07
:100CF8000C0F93EA0C0F6FD01A4480EA010C4002E3
:100D080018BF5FEA41211ED04FF0006343EA50103C
:100D180043EA5111A0FB01310CF00040B1F5000F7E
:100D28003EBF490041EAD3715B0040EA010062F12D
:100D38007F02FD2A1DD8B3F1004F40EBC25008BF17
:100D480020F00100704790F0000F0CF0004C08BF35
:100D580049024CEA502040EA51207F3AC2BFD2F102
:100D6800FF0340EAC250704740F400004FF0000310
:100D7800013A5DDC12F1190FDCBF00F0004070474A
:100D8800C2F10002410021FA02F1C2F1200200FA88
:100D980002FC5FEA310040F1000053EA4C0308BF4F
:100DA80020EADC70704792F0000F00F0004C02BFA0
:100DB800400010F4000F013AF9D040EA0C0093F01B
:100DC800000F01F0004C02BF490011F4000F013B75
:100DD800F9D041EA0C018FE70CEAD15392EA0C0FE3
:100DE80018BF93EA0C0F0AD030F0004C18BF31F04E
:100DF800004CD8D180EA010000F00040704790F024
:100E0800000F17BF90F0004F084691F0000F91F0C7
:100E1800004F14D092EA0C0F01D142020FD193EA8D
:100E28000C0F03D14B0218BF084608D180EA010015
:100E380000F0004040F0FE4040F40000704740F0F1
:100E4800FE4040F4400070474FF0FF0C1CEAD052BF
:100E58001EBF1CEAD15392EA0C0F93EA0C0F69D01B
:100E6800A2EB030280EA010C49024FEA402037D086
:100E78004FF0805343EA111143EA10130CF000407D
:100E88008B4238BF5B0042F17D024FF4000C8B426D
:100E980024BF5B1A40EA0C00B3EB510F24BFA3EB4D
:100EA800510340EA5C00B3EB910F24BFA3EB91031D
:100EB80040EA9C00B3EBD10F24BFA3EBD10340EA77
:100EC800DC001B0118BF5FEA1C1CE0D1FD2A3FF6BD
:100ED80050AF8B4240EBC25008BF20F00100704772
:100EE8000CF0004C4CEA50207F32C2BFD2F1FF0315
:100EF80040EAC250704740F400004FF00003013A46
:100F080037E792F0000F00F0004C02BF400010F4E9
:100F1800000F013AF9D040EA0C0093F0000F01F0FD
:100F2800004C02BF490011F4000F013BF9D041EA1F
:100F38000C0195E70CEAD15392EA0C0F08D1420252
:100F48007FF47DAF93EA0C0F7FF470AF084676E725
:100F580093EA0C0F04D14B023FF44CAF08466EE7FE
:100F680030F0004C18BF31F0004CCAD130F00042CC
:100F78007FF45CAF31F000437FF43CAF5FE700BF24
:100F88004FEA4002B2F1FE4F0FD34FF09E03B3EB8E
:100F980012620DD94FEA002343F0004310F0004FCE
:100FA80023FA02F018BF404270474FF00000704724
:100FB80012F1610F01D1420205D110F0004008BFC3
:100FC8006FF0004070474FF00000704742000ED2AB
:100FD800B2F1FE4F0BD34FF09E03B3EB126209D46C
:100FE8004FEA002343F0004323FA02F070474FF022
:100FF8000000704712F1610F01D1420202D14FF097
:10100800FF3070474FF00000704700BF844641EA48
:10101800000313F003036DD1403A41D351F8043B68
:1010280040F8043B51F8043B40F8043B51F8043BBA
:1010380040F8043B51F8043B40F8043B51F8043BAA
:1010480040F8043B51F8043B40F8043B51F8043B9A
:1010580040F8043B51F8043B40F8043B51F8043B8A
:1010680040F8043B51F8043B40F8043B51F8043B7A
:1010780040F8043B51F8043B40F8043B51F8043B6A
:1010880040F8043B51F8043B40F8043B51F8043B5A
:1010980040F8043B51F8043B40F8043B403ABDD2C9
:1010A800303211D351F8043B40F8043B51F8043B6B
:1010B80040F8043B51F8043B40F8043B51F8043B2A
:1010C80040F8043B103AEDD20C3205D351F8043BFA
:1010D80040F8043B043AF9D2043208D0D2071CBFC6
:1010E80011F8013B00F8013B01D30B8803806046EF
:1010F800704700BF082A13D38B078DD010F0030365
:101108008AD0C3F10403D21ADB071CBF11F8013BD4
:1011180000F8013B80D331F8023B20F8023B7BE723
:10112800043AD9D3013A11F8013B00F8013BF9D24E
:101138000B7803704B7843708B78837060467047E8
:101148004FEA410212F5001215D211D56FF47873E7
:10115800B3EB625212D94FEAC12343F0004343EA8A
:10116800505311F0004F23FA02F018BF4042704765
:101178004FF00000704750EA013005D111F00040EF
:1011880008BF6FF0004070474FF00000704700BF85
:101198004BB942B9002908BF002802D04FF0FF31EF
:1011A800084600F03BB882B0EC462DE9005000F04C
:1011B8001DF8DDF804E002B00CBC70472DE9F041E1
:1011C800069C154606460F46984600F029F805FB8A
:1011D80001F300FB0838A5FB0023B21A434467EB70
:1011E8000303C4E90023BDE8F08100BF2DE9F04105
:1011F800069C904606460F461D4600F05FF900FB28
:1012080005F5A0FB082308FB0155B21A2B4467EB30
:101218000303C4E90023BDE8F08100BF704700BFA5
:1012280000292DE9F043C0F2A6800026002BC0F269
:101238009C80884694469E46154604460F46002BD9
:101248003DD18A4259D9B2FA82F33BB1C3F12002A7
:101258009F4020FA02F29D4017439C40290C220C23
:10126800B7FBF1FEA8B201FB1E7742EA074700FB75
:101278000EF3BB420AD97F190EF1FF3280F00581C7
:10128800BB4240F20281AEF1020E2F44FF1AA4B213
:10129800B7FBF1F301FB137744EA074700FB03F0C0
:1012A800B84208D97F1903F1FF3280F0F080B842C4
:1012B80040F2ED80023B43EA0E43002203E08B42FA
:1012C8000FD900221346341C18BF012460424FF086
:1012D800000565EB45015840514000196941BDE8DA
:1012E800F083B3FA83F2002A40F086808B4202D35F
:1012F800844500F2DB800123E5E712B90123B3FB43
:10130800F2F5B5FA85F000283BD1781B4FEA154E67
:101318001FFA85FC0122B0FBFEF8210C0EFB180712
:1013280041EA07470CFB08F3BB4207D97F1908F1CC
:10133800FF3102D2BB4200F2BD808846FF1AA4B238
:10134800B7FBFEF30EFB137744EA07470CFB03FCDD
:10135800BC4507D97F1903F1FF3102D2BC4500F221
:10136800A7800B4643EA0843ADE752426FEA0606F8
:1013780063EB43035DE7404261EB41014FF0FF3609
:1013880054E7C0F1200224FA02F107FA00F385407D
:101398004FEA154ED7401943B7FBFEF20B0C0EFB74
:1013A80012771FFA85FC43EA07430CFB02F79F42BA
:1013B80004FA00F407D95B1902F1FF3074D29F4296
:1013C80072D9023A2B44DF1B89B2B7FBFEF80EFB39
:1013D800187341EA03430CFB08F79F4208D95B19CD
:1013E80008F1FF315CD29F425AD9A8F102082B4478
:1013F800D81B48EA02428EE7C2F120032CFA03F117
:101408000EFA02FE20FA03F741EA0E0E08FA02F07D
:1014180028FA03F14FEA1E453843B1FBF5F8030CEF
:1014280005FB18111FFA8EF743EA014107FB08F381
:101438008B420CFA02FC09D911EB0E0108F1FF39B5
:1014480030D28B422ED9A8F102087144C91A80B251
:10145800B1FBF5F305FB131140EA014107FB03F764
:101468008F4208D911EB0E0103F1FF3016D28F42DB
:1014780014D9023B714443EA0843C91BA3FB0C89F6
:10148800494509D305D000221DE79646FEE61346D6
:1014980011E794404445F6D2013BF4E70346EAE7F6
:1014A8008846A5E7C846D1E702468CE713460AE70F
:1014B800023B57E7A8F102082F443FE72DE9F04126
:1014C800002B44D18A42154604464FD9B2FA82F716
:1014D8000E464FB1C7F12003B94020FA03F602FACD
:1014E80007F50E4300FA07F44FEA154E230CB6FB36
:1014F800FEF0AFB20EFB106143EA014307FB00F1B7
:10150800994209D95B1900F1FF3280F0EC809942C9
:1015180040F2E98002382B445A1AA4B2B2FBFEF317
:101528000EFB132244EA024207FB03F7974208D94D
:10153800521903F1FF3180F0D880974240F2D580EC
:10154800023B43EA004000263146BDE8F0818B4269
:1015580047D8B3FA83F6002E48D18B4202D3824291
:1015680000F2CD8001203146BDE8F08112B9012595
:10157800B5FBF2F5B5FA85F8B8F1000F77D14A1B3B
:101588004FEA154EAFB20126B2FBFEF0230C0EFB5C
:10159800102143EA014107FB00F38B4207D949199F
:1015A80000F1FF3202D28B4200F2BA801046C91A0B
:1015B800A4B2B1FBFEF30EFB131144EA014407FB8E
:1015C80003F7A74208D9641903F1FF3280F08F802E
:1015D800A74240F28C80023B43EA00403146BDE816
:1015E800F081002630463146BDE8F081C6F120047E
:1015F80022FA04F5B3402B4320FA04FC01FA06F75B
:1016080021FA04F54FEA134E4CEA0707B5FBFEF83A
:10161800390C0EFB18551FFA83FC41EA05450CFBF3
:1016280008F1A94202FA06F204D9ED1808F1FF34CC
:1016380067D3A0466D1ABFB2B5FBFEF40EFB145576
:1016480047EA05410CFB04FC8C4504D9C91804F190
:10165800FF355CD32C4644EA0844CCEB0101A4FBDB
:101668000223994248D344D0204600266CE7C8F1AB
:10167800200401FA08F305FA08F520FA04F7E14016
:101688004FEA154E1F43B1FBFEF63A0C0EFB16113E
:101698001FFA85FC42EA01430CFB06F29A4200FA63
:1016A80008F407D95B1906F1FF3137D29A4235D9C8
:1016B800023E2B449B1ABFB2B3FBFEF00EFB103365
:1016C80047EA03430CFB00F1994207D95B1900F183
:1016D800FF3221D299421FD902382B445A1A40EAC4
:1016E8000646674650E7104616E70B4629E71346B5
:1016F80072E7B0409042B7D2601E002624E7304619
:1017080022E7A94295D9A8F102081D4492E78C4521
:10171800A0D9023C19449EE71046DFE70E46C9E708
:101728000238294443E700BFDFF830D0002103E046
:101738000B4B5B58435004310A480B4B42189A42F2
:10174800F6D30A4A02E0002342F8043B084B9A42C7
:10175800F9D300F011F800F0B5F970470000032044
:10176800BC570308000000200C0C002010D40020F7
:1017780060EC0020FEE700000C4B1A68002142F0E4
:1017880001021A6099601A6822F0847222F4803289
:101798001A60074A5A601A6822F480221A60D960CF
:1017A800044B4FF000629A60704700BF0038024057
:1017B8001030002400ED00E0034B1A6810441A684A
:1017C8008242FCD3704700BF1CD400207047FEE75C
:1017D800FEE7FEE7FEE770477047704708B507F079
:1017E80047F9184A136801331360174B1A68013216
:1017F8001A6018681922B0FBF2F102FB110212B943
:10180800124A0121117018683222B0FBF2F102FB72
:10181800110212B90E4A0121117019684FF47A7336
:10182800B1FBF3F203FB121313B90A4B01221A702E
:10183800094B1A6801321A601B68084B01221A709A
:1018480008BD00BF14D400201CD4002021D40020DF
:1018580020D4002022D4002018D4002010D4002046
:1018680000F0C6BC00F0BEBC00F0B6BC08B5054B25
:10187800012204201A7007F0C7F80348BDE80840A1
:1018880017F044BF23D4002020FE0108084A13683B
:1018980043F027031360074B1B68DA0706D5064B8E
:1018A8001B68DB0742BF054B01221A60704700BF67
:1018B800042004E0F0ED00E0000E00E070D4002009
:1018C800064B1B684BB1064B1B68DB0105D54FF077
:1018D80060431A68002AFAD01870704770D4002044
:1018E800FCED00E0054B1B6810B533B1441E14F83D
:1018F800010F10B1FFF7E4FFF9E710BD70D4002025
:10190800013989B28B18B3F5167F30B511DC002385
:10191800934200F102000AD05D18074C34F81540D4
:1019280000F8014C250A00F8025C0133F0E70020BA
:1019380030BD012030BD00BF24D9002070B54C1E39
:101948001D46A3B29C18B4F5167F2CDC25B1012DD9
:101958002BD10A4492B213E00A4492B2591C89B2BC
:10196800914200F1020020D0114D35F81340240AAD
:1019780000F8024C35F8133000F8013C0B46EDE74F
:10198800591C89B2914200F102000ED010F8024CA5
:10199800074E240226F8134010F8015C2C4326F861
:1019A80013400B46ECE7012070BD002070BD00BF5E
:1019B80074D400202DE9F84F4FEAD2090D460746A6
:1019C8001146324809F10108013D14469A46ADB264
:1019D80017F05AFE1FFA88F12D4817F055FE2D48CA
:1019E800294617F051FE2B19B3F5167F4BDCEE088C
:1019F8003146294805F0070517F046FE27482946CD
:101A080017F042FEBAF1000F06D0BAF1010F1CD14F
:101A180009EB060BBA461BE0B844B946F31B20484D
:101A28004B4410FA83F02946082202F057F9C0B255
:101A380009F8010BC145F1D104F00704C4F1080409
:101A4800A040C0B2204109F8010C0020BDE8F88F81
:101A58005E450DD012481AF8013B06F101083044E2
:101A68001FFA88F82946082202F012F94646EFE7DD
:101A780014F00702E9D00A4817F80930304429461B
:101A880002F006F9E1E70120BDE8F88F2BFE010816
:101A980039FE010844FE010853FE010862FE0108F0
:101AA80024D400200120704708B504484FF40051A1
:101AB80006F098FF024817F029FEF6E7000C0240EE
:101AC80074FE0108F0B5A5B006F0BCFF7F4A136CA0
:101AD80043F080531364A2F5E4320224136843F4FC
:101AE800404313600123189319934FF480031F9305
:101AF800192320934FF4A873219318A807231E9441
:101B08002294239302F0D4FB08B1FFF7CDFF0F23F3
:101B180007934FF4A05309900A9307A84FF48053F2
:101B2800052108940B9302F0C5FD0028EDD106F0BD
:101B3800BBFF41F20103984201BF654A136843F4B1
:101B480080731360FFF7A2FE6248FFF7CBFE62487E
:101B580062494FF0204310220360426100234FF492
:101B68008052022501268B618360C3600361836113
:101B7800C361036243628262C36203634363836334
:101B88000A464FF4801381E860008D60CE600D61D5
:101B98004D61C36304F054FD0028B6D1504B514A3F
:101BA8001A604FF480421A614F4A5A6040225861C5
:101BB8009860DA611862FE221846DA609A6103F0CA
:101BC800A1FF0028A1D1494B494998604FF496429A
:101BD80083E80600D860186198610C22D86118461D
:101BE8005A6104F0ABFC00288FD1424C424B606034
:101BF800A0602061A0616062A062E0622063E06092
:101C0800E061606120462360266205F05BFD0028E4
:101C18007FF47BAF06900827204603A90496039714
:101C2800059505F0C5FE064600287FF46EAF274AE5
:101C3800324C136B43F004031363314B19931A901E
:101C480004233048189318A906F062FD2946324645
:101C5800384604F087F9384604F0C6F92A4B2B4A6F
:101C68001B68B3FBF2F32A4A2661013B84E80C00A7
:101C7800204640F20773E360A66006F011FA0246B8
:101C880000287FF442AF60231193139014901790AB
:101C98001690159040F2465311A92046129306F06B
:101CA800CBFA014600287FF430AF204606F05CFCF2
:101CB80000287FF42AAF0CA80DEB070102F0E0FE24
:101CC8000F9B3BBB02F0ACFE27E000BF0038024090
:101CD800003C024095FE010890E8002074E80020CE
:101CE80014E9002000540040801A0600BCE20020DD
:101CF8000010014030E800200020014098E3002057
:101D080000002110000802400000002000512502B8
:101D18000040014002F084FE40006C4B6C4A1A609F
:101D28004522DA6044F62062B0FBF2F00138002266
:101D3800586018461A619A6006F042F9044600286D
:101D48007FF4E3AE634A6448136B644D43F00803C1
:101D580013634FF400530322189318A9012319930E
:101D68001B921A9306F0D4FC22464FF4E1330094F8
:101D780020460B2101F010FD594C002814BF2146C4
:101D88002946584817F080FC01F062FD002814BF6E
:101D980021462946544817F077FC01F0DDFA01285E
:101DA80002D0524817F070FC01F010F8012802D058
:101DB8004F4817F069FC4F484F4906F0BDFE28BB55
:101DC8004E4817F0A3FC4C494D48012207F0E6FDA8
:101DD800014618B14B4817F099FC17E046480A46E7
:101DE80008F0EEF800287FF490AE474808F052F863
:101DF800044600287FF489AE444800F0E1FB204601
:101E080006F066FE0146424817F03EFC414C237836
:101E1800B3B34148414917F037FC414BB3F8E623C7
:101E28000132A3F8E623B3F8E8230132A3F8E82344
:101E3800B3F8EA230132A3F8EA23B3F8EC2301321A
:101E4800A3F8EC23374BB3F82A210132A3F82A214F
:101E5800B3F82C210132A3F82C21B3F82E2101323A
:101E6800A3F82E21B3F830210132A3F830212E4BEC
:101E780011229A729122DA72D1221A7300232370E6
:101E88002A4C23783BB101F0F5FC0146284817F0AD
:101E9800FBFB00232370274C23783BB1264B1868A3
:101EA8000CF08CFC10F05CFE00232370234C23788C
:101EB8001BB100F09DFB00232370214C2378002BDD
:101EC800A4D001F061FA002323709FE758E30020B3
:101ED800000C004000380240000C02408CFE010853
:101EE80086FE0108A2FE0108B6FE0108CCFE010824
:101EF800E0FE01088C00002094E30020FBFE0108AE
:101F0800D4E300200FFF01081BFF010824FF01088C
:101F18002EFF0108040000203EFF01084EFF0108C3
:101F280024D9002074D4002024D4002020D40020F8
:101F380053FF010821D4002068E9002022D40020A2
:101F480010D4002010B50446C0B2FFF7B9FC2046F3
:101F580010BD4FF0FF30704708B503460A460248E7
:101F6800194617F091FBFEE762FF010807B5012348
:101F78004FF480710A488DF806308DF8073006F066
:101F880007FD8DF807009DF80730012B04BF0023DB
:101F98008DF806309DF8060003B05DF804FB00BF1D
:101FA800000402402DE9F04F624B634D00268BB0D0
:101FB80085E84800AE60EE602E616E61AE61FFF7A5
:101FC800D5FF0128044601D00120B0E05B4817F096
:101FD8009DFB5B4B5B485A6C42F400625A641A6B77
:101FE80042F480021A631A6B42F004021A631A6BF5
:101FF80042F008021A630223069307940C230AACE2
:1020080009934FF4F85344F8143D032721464FF041
:102018000408089706F07CFB21464B48CDF814804D
:1020280006F076FB384603F081FF05213246312061
:10203800464C03F097FF312003F0D6FF4FF480435E
:102048004348A3614FF0006C4FF480614FF4805215
:10205800206000934FF0200B4FF400134FF4403AE8
:102068004FF400092046C4F804C02161626123636B
:10207800CDF80CC002910192A660E660C4F81CB0CD
:10208800C4F820A0C4F82480A762C4F82C90AC65DA
:10209800A56304F0DDFB20462E4C04F0F7FA009B04
:1020A800A36140204FF40013DDF80CC00299019A97
:1020B800A06023632046284BC4F804C02360216134
:1020C8006261E660C4F81CB0C4F820A0C4F824809B
:1020D800A762C4F82C90EC65A56304F0B9FB204610
:1020E80004F0D4FA384603F021FF062132463B209B
:1020F80003F038FF3B2003F077FF384603F016FF64
:1021080006214520324603F02DFF452003F06CFFE1
:102118002846124903F0B2F800287FF455AF284644
:102128004FF4006103F08CFA003018BF01200BB0A7
:10213800BDE8F08F002C014080DE00208FFF0108F1
:102148000038024000080240000C024030DE002047
:1021580058640240E0DE0020A0640240D8DD002080
:1021680007B501460498009005980190074802F0C9
:10217800B1FD08B1012006E00448054903F00DFB54
:10218800003018BF012003B05DF804FB80DE00209A
:1021980000E1F50513B501460498009005980190F3
:1021A8000A4802F00BFE041C18BF01240848214607
:1021B80017F06AFA3CB90548064903F043FB0030BA
:1021C80018BF012000E0012002B010BD80DE002011
:1021D8009BFF010800E1F505014802F099BE00BF28
:1021E80080DE0020014BD86D04F05EBD80DE00204B
:1021F800014B986D04F058BD80DE0020014803F0C3
:10220800FEBA00BF80DE00200146014802F0EFBEA2
:1022180080DE00207FB50B4B0B481A6B42F00202A0
:102228001A635A6C42F480725A640123019303239F
:10223800029301A90023039306F06AFA07B05DF838
:1022480004FB00BF0038024000040240064A08B5FB
:10225800136C43F0080313641E2003F0C5FE3220FC
:10226800BDE8084003F0C0BE003802407FB50D4B02
:102278000D485A6C42F480325A641A6B42F01002CC
:102288001A63022302930123039306A903230493E9
:102298000593202341F8143D06F03AFA07B05DF89B
:1022A80004FB00BF0038024000100240264B1A6BA6
:1022B80042F00102F0B51A631A6B244C42F0010295
:1022C8001A635A6C42F010025A641A6B87B042F0D3
:1022D80004021A63022600254FF4007307272046DC
:1022E80001A90193059702960395049606F010FA42
:1022F8000597174F4FF48063204601A901240193E5
:1023080006F006FA0323384601A9049302940394BD
:10231800019406F0FDF9384601A9019606F0F8F98E
:10232800384621462A4606F045FB384631462A46B5
:1023380006F040FB21462A46252003F013FE2520FF
:1023480003F052FE07B0F0BD003802400000024022
:10235800000802402DE9F043264C274E236B43F03A
:1023680002032363236B43F002032363236B87B0C9
:102378004FF0040943F004032363012512234FF0AF
:102388004008022730460DEB09010293CDF804807E
:1023980004970395CDF8149006F0BAF92A4630460A
:1023A800414606F007FB4FF4007830460DEB090173
:1023B800CDF80480CDF8149006F0AAF92A463046E4
:1023C800414606F0F7FA04970C4F0295082638465E
:1023D8000DEB09010196039506F09AF93846314646
:1023E8002A4606F0E7FA236C43F40013236407B087
:1023F800BDE8F083003802400004024000080240B3
:102408001D4B1E489A6B42F00102F0B59A631A6B95
:102418001B4F42F008021A631A6B42F010021A634B
:102428001A6B87B042F002021A63032306AC0493C6
:102438000C2305934CF2B37344F8143D022601258E
:1024480021460296039506F063F94FF688732146F4
:102458000C48019306F05CF938462146019602952E
:102468000496039506F054F9384631462A4606F094
:10247800A1FA07B0F0BD00BF00380240000C0240CE
:10248800000402400010024070474FF0FF307047D0
:102498004FF400534B600020704701207047000044
:1024A800022881BF034B092200201A6098BF01202F
:1024B800704700BF5CEC0020024B16221A604FF0F8
:1024C800FF3070475CEC00200020704770B50E4666
:1024D800144640B90D46AB1BA3420ADAFFF739FD93
:1024E80005F8010BF7E7044B09221A604FF0FF309B
:1024F80070BD24EAE47070BD5CEC0020013801284E
:1025080070B50E4614460AD80D46AB1BA34204DA32
:1025180015F8010BFFF716FDF7E7204670BD034BD2
:1025280009221A604FF0FF3070BD00BF5CEC00203C
:1025380008B5012002490422FFF7E0FFFEE700BFCB
:10254800A9FF010808B50D4B1A680AB90C4A1A60A8
:102558001B68EFF30882184490420AD909491922E6
:102568000220FFF7CBFF084B0C221A604FF0FF3018
:1025780008BD024A1060184608BD00BF30DF0020C1
:1025880060EC0020AEFF01085CEC00200FB413B52E
:1025980004AB094C53F8042B019308499DF81430F7
:1025A800204607F0CBFF204607F00DFC02B0BDE83F
:1025B800104004B0704700BF04E60020C8FF0108BF
:1025C80008B501460A22074807F022FA08B1FFF7C2
:1025D8006BFA054817F09AF80248BDE8084007F07A
:1025E800F2BB00BF04E60020D2FF01080000000093
:1025F80038B5314805F068F908B1FFF755FA0121F7
:102608002D482E4C05F0ACF92B4805F06BFA15282F
:1026180005D1294805F0C8F9FEF70AFB20602168B2
:102628004FF08B40FEF710FC4FF07E51FEF74EFA4C
:1026380001462348FEF708FCFDF706FF16F06EFC7E
:10264800FEF7F0F91F490446FEF74AFB1E49FEF75C
:102658003FFA1E4905462046FEF742FB2146FEF793
:102668003FFB2146FEF73CFB01462846FEF730FAC1
:1026780001464FF07E50FEF7E7FBFDF7E5FE0CA3A1
:10268800D3E90023FDF780FDFEF7CCF90446FEF7F9
:102698009DFCC1B20E48FFF779FF2046FEF770FC9B
:1026A800BDE8384040B200F037BA00BFAFF3008051
:1026B800666666666612714030E8002034DF0020E6
:1026C8000050C3478D175E39FC73553A08878E331F
:1026D800DFFF0108AFF3008007B5064B40F609019C
:1026E80018680BF04BFB694608F06CFA03B05DF80C
:1026F80004FB00BF7CE9002003680F2B10B539D11B
:102708001E4B1F4C1978022901D11E4814E023687A
:102718005A1C2260032B12D8DFE803F00204060CCF
:10272800194802E0194800E0194802210A4610F049
:102738003DFC06E0174802210A4610F037FC00234A
:102748002360154B1B78012B03D0022B01D11348B2
:1027580000E0134810F006F800203E220146134618
:1027680011F06AFE01203D2201461346BDE81040E3
:1027780011F062BEBDE810400CF04ABC58E90020D8
:1027880038DF002004200208B41F0208C81F02080E
:10279800DC1F0208F01F020880E90020FF8080008B
:1027A80000A0DF0038B50368262B044600F02A8114
:1027B800B3F5107F00F06F811D2B40F068814568EC
:1027C800B549284609F07AFD28460E210AF036F860
:1027D8002846002109F0A4FD40F6080160680BF0C6
:1027E800CDFAAE49054608F0EDF92846AC4908F09F
:1027F80011FA28460C2108F0D3F92846A94908F00F
:10280800BDF940F6090160680BF0B8FAA64905461B
:1028180008F000FA2846A54908F0D4F928460E2100
:1028280008F0BEF941F6090160680BF0A7FAA04963
:10283800054608F0C7F928469E4908F0EBF92846EE
:102848000C2108F0ADF928469B4908F097F94FF498
:10285800036160680BF092FA0221054608F0A0F9BE
:102868002846964908F0AEF92846954908F0D2F965
:1028780040F6310160680BF081FA92490546002262
:1028880008F055FC284601228F4908F050FC2846DC
:102898008E4908F071FC284602228D4908F047FC51
:1028A80040F6330160680BF069FA86490546002254
:1028B80008F03DFC28460122864908F038FC2846E5
:1028C800824908F059FC28468349022208F02FFC67
:1028D800032228467E4908F02AFC40F63401606845
:1028E8000BF04CFA7D49054608F06CF928467C49FE
:1028F80008F090F94FF42A6160680BF03FFA7949C3
:10290800054608F05FF92846754908F083F940F64E
:10291800A12160680BF032FA7349054608F052F9B4
:1029280028466F4908F076F940F61E0160680BF0FA
:1029380025FA6E4905460AF077FD284663490AF0EC
:102948009BFD4FF4026160680BF018FA6849054670
:1029580008F038F92846674908F05CF940F6210183
:1029680060680BF00BFA644905460AF010F928462E
:1029780056490AF04BF9284601210AF02AF95F4B1B
:102988006068012240F624011A700BF0F7F95949E2
:10299800054608F03FF92846594908F013F940F66A
:1029A800260160680BF0EAF95649054608F00AF96D
:1029B8002846434908F02EF940F6280160680BF0D4
:1029C800DDF95149054608F0FDF82846494908F05F
:1029D80021F940F6320160680BF0D0F91E2200217F
:1029E800054608F079FB494B19682846C1F15F0193
:1029F80008F09CFA606840F608010BF0BFF9444BF8
:102A080018602EE080680BF078F940F631029042A9
:102A18000146E3680ED004DC40F61E0290422ED038
:102A280038BD40F6320290420ED040F63302904252
:102A38001BD038BD052B2ED160680BF09FF908F02C
:102A48005EFD2E4B987038BD052B24D160680BF0C5
:102A580095F908F05EFB2D4BC0F15F001860274B1D
:102A68005860BDE83840FFF737BE052B13D16068C2
:102A78000BF084F908F043FD204B587038BD022B49
:102A880009D1244B1868BDE8384000F0D3B8BDE838
:102A980038400CF0BDBA38BD60CA0208EBFF010827
:102AA80084AA0208528D25003CEB0208EEFF0108BB
:102AB800F1FF010840B8020852258D00F4FF010813
:102AC800981B0308F8FF0108FDFF0108C028030848
:102AD80000000208040002080B00020812000208A5
:102AE8000CC0020815000208170002081A000208A4
:102AF800FC000208580C03081F0002085CE90020CB
:102B08002E00020832000208F600020870E90020D0
:102B18003CDF00209CE9002013B5024617496846AF
:102B280016F0FCFD164B6946186808F04BF8154B73
:102B380041F6090118680BF021F9134B1B7804467C
:102B480053B1124B0D491A68684616F0E7FD204646
:102B5800694608F037F80BE00D4B1B68684623B14F
:102B68000649DA6816F0DAFD02E00A4916F0FCFDBB
:102B78002046694608F026F802B010BD3900020860
:102B88003CDF00207CE900205CE9002070E900209F
:102B980050E900204995020830B5134885B009F07E
:102BA80077FB12480AF0F8FA0BF0ECF80025034618
:102BB8000095019511210E4A0E4809F099FF062348
:102BC8003F2201930C4B0090044602936821134660
:102BD800039572200BF0AEFE084B186020460BF0F0
:102BE8000AF8204605B030BDC9BD000881CE0008EE
:102BF800AD270008000102080127000868E9002045
:102C080008B503680F2B0DD16FF07F400FF0AAFDB8
:102C180006480FF079FD064805212822BDE808403E
:102C280010F084BBBDE808400CF0F2B9FCFA0208C9
:102C380044DF00200E4B10B5044618680AF0DBFF8D
:102C48000C4B18680AF0D7FF0B4B18680AF0D3FF33
:102C58000A4B18680AF0CFFF094B18680AF0CBFF37
:102C680020460AF092FCBDE810400FF079BF00BF83
:102C78007CE90020A8E900209CE9002088E90020E0
:102C880098E9002003680F2B37B5044627D0262B78
:102C980030D180680BF031F840F611029042E368B9
:102CA80004D040F6120290420CD025E0022B23D12A
:102CB800124B1868FFF7BEFF114B0021186808F087
:102CC800CFFE19E0022B17D10D4B1D6800242146B9
:102CD8002846013408F0C4FE652CF8D10CE001A99F
:102CE800042240680AF03BFC01980FF039FD10F00F
:102CF800EDFC01E00CF08CF903B030BD9CE900203C
:102D080074DF002030B503680F2B89B0044643D028
:102D1800262B4CD180680AF0F0FFA0F60B00E36880
:102D28000A2846D8DFE800F006450A11454545451A
:102D380045451500022B3CD11F4B02E0022B38D130
:102D48001E4B1868FFF776FF33E0022B31D11C4B7E
:102D5800F7E7052B2DD11B4B186808F0DAF9044664
:102D680004EBC4046400002500211748053405F06D
:102D780059FCA4B2602301A92A461348019303957C
:102D88000495079506950595029405F055FA294688
:102D98000D4805F0E9FB0CE001A9042240680AF09F
:102DA800DEFB01980FF0DCFC10F090FC01E00CF069
:102DB8002FF909B030BD00BF88E90020A8E900203C
:102DC8007CE9002070DF002098E300202DE9F04F17
:102DD8004FF47F0087B00FF0C3FC10F077FC6FF062
:102DE8007F40DFF8B883DFF8B8A3DA4FDA4EDFF8B0
:102DF800B4B3DFF8B4930FF0B5FCD8480FF084FCF7
:102E0800A0210522D64810F06FFA40460FF07CFC4E
:102E180028220521D34810F081FA0FF0A1FE0020E6
:102E28000AF0F2FC0FF09CFE00200FF099FC6FF006
:102E380070400AF0E9FC0AF0A5FF51460AF070FD5F
:102E480000240625C84B386021460193009502945A
:102E580020464FF4A072F0230BF01CFECDF804B00E
:102E6800306021460095029420464FF4A072F0236A
:102E78000BF010FE21464FF4A072F023C9F80000B1
:102E88008DE82008029420460BF004FEDFF81CB3FE
:102E9800CBF800003068FFF7CDFE0AF073FF51460B
:102EA8000AF03EFD33683860009340F60B03962223
:102EB800019321463223029520460AF09EF9DFF855
:102EC800F0A2AA4FCAF8000041460AF0D5FADAF88B
:102ED8000000A7490AF0A8FADAF8000001210AF070
:102EE800DCFADAF80000DFF8CCA239460AF040F93B
:102EF8003368009340F60C0396220193029532231F
:102F080020463C210AF079F94146CAF800000AF047
:102F1800B3FADAF8000097490AF086FADAF80000FE
:102F280001210AF0BAFADAF80000DFF88CA2394673
:102F38000AF01EF93368009340F60D0396220193B8
:102F480002953223204678210AF057F94146CAF8FB
:102F580000000AF091FADAF8000087490AF064FAEA
:102F6800DAF8000001210AF098FADAF80000DFF830
:102F78004CA239460AF0FCF83368009340F60E0379
:102F880096220193214632230295A0200AF035F9B2
:102F98004146CAF800000AF06FFADAF800007749EB
:102FA8000AF042FADAF8000001210AF076FADAF8B3
:102FB8000000DFF80CA239460AF0DAF8336800930B
:102FC80040F60F0396220193029532233C21A0205C
:102FD8000AF013F94146CAF800000AF04DFADAF887
:102FE800000067490AF020FADAF8000001210AF027
:102FF80054FADAF80000DFF8CCA139460AF0B8F83C
:10300800336800934FF401639622019302953223AB
:103018007821A0200AF0F1F84146CAF800000AF029
:103028002BFADAF800005749DFF89C810AF0FCF91E
:10303800DAF8000001210AF030FADAF80000DFF8C7
:103048008CA139460AF094F8D9F80030009332215F
:1030580040F611034FF4A072019302950B462046E7
:103068000AF0CBF85146C8F800000AF005FADFF874
:1030780060C1D8F80000CDF814C061460AF0D4F950
:10308800D8F80000DFF84C8101210AF006FAD9F8D7
:103098000030009340F612034FF4A072019302959A
:1030A800322320466E210AF0A8F85146C8F80000DD
:1030B8000AF0E2F9D8F8000033490AF0B5F9D8F86F
:1030C800000001210AF0E9F9D8F8000039460AF0B1
:1030D8004FF8D9F800300093C82140F614030A4687
:1030E800019302951923142008F090FB274B2849D7
:1030F800186008F077FBDBF800300093322140F6C7
:1031080013034FF4A072019302950B4620460AF070
:1031180074F8204F514638600AF0AEF9DDF814C053
:10312800386861460AF080F9386801210AF0B5F973
:10313800336802948DE8280040F61503B4219622DE
:1031480003931420232307F0A7FE134B18600FF0F6
:1031580007FD41E088DF00209CE90020FCFA020816
:10316800DC020208F70202080D2D000881CE0008D3
:103178000C0302081603020823030208300302089E
:103188003A030208430302085303020874DF0020CD
:1031980025B5000880DF002070DF002060CA020823
:1031A800092C00088D2C000888E9002098E90020E7
:1031B80040DF002084DF00206CDF00208CDF00204F
:1031C80090DF002094DF002078DF0020580C0308EF
:1031D8004E0302087CDF0020FFF7DEFC044B18607A
:1031E80000F09AF8034B1860012007B0BDE8F08F93
:1031F8007CE90020A8E9002038B50368262B04469E
:1032080064D0B3F5107F75D01D2B6FD145683A494E
:10321800284609F053F828460E2109F00FFB2846E6
:10322800002109F07DF8606840F617010AF0A6FD54
:103238003249054607F0C6FC28462F4907F0EAFC44
:1032480028460E2107F0ACFC606840F618010AF029
:1032580095FD2949054607F0DDFC2846284907F071
:10326800B1FC28460E2107F09BFC606841F6090175
:103278000AF084FD2049054607F0CCFC2846214980
:1032880007F0A0FC28460E2107F08AFC606840F68B
:1032980019010AF073FD1849054607F0BBFC2846DA
:1032A800194907F08FFC28460E2107F079FC606861
:1032B80040F61F010AF062FD144904460AF0B4F80A
:1032C80020461349BDE838400AF0D6B880680AF0AD
:1032D80014FD40F61F029042E3680BD1022B09D17E
:1032E8000C4B1868BDE83840FFF7A4BCBDE838406F
:1032F8000BF08EBE38BD00BF60CA02085D0302082D
:103308006C0302087A0302088D0302081A000208F7
:10331800C02803089CE9002013B50B4808F0B8FF43
:103328000A4809F039FF0AF02DFD002203460092F1
:1033380001920621064A074809F0DAFB04460AF01A
:103348005AFC204602B010BDC9BD000881CE000855
:1033580001320008D803020808B501214FF4805053
:1033680000F0AEF807F062FA022005F08FFB0020AB
:1033780007F07EFB052005F089FB10F0E5F9B0FAAF
:1033880080F0400908BD000030B5134B134C1A7883
:1033980085B01D463AB107F0BBFBA388C3F1F00323
:1033A800029323890193637803B101238DF80C30CC
:1033B8000B4B9DF80C201978914206D01A7001A881
:1033C80000238DF80D300FF081F90FF0C9FB0023B1
:1033D8002B7005B030BD00BF23D40020C2EA002006
:1033E80098DF00204FF0C04318807047014B1880C9
:1033F800704700BF0000106000EB4101884204D014
:10340800024B30F8022B1A80F8E770470000106072
:1034180000EB4101884204D0024B1B8820F8023B94
:10342800F8E770470000106010B5A0B001A80021AF
:10343800142216F0DBF806A80021682216F0D6F848
:10344800002213461349144810F0A2F8F02104464C
:103458004FF4A07200200DF026FF4FF4A072F02167
:1034680000200DF009FF0623204601A903930DF063
:10347800A2FE0A4B0E930A4B0F930A4B11930A4B69
:103488001593204606A9094A094B0DF0B2FE20B053
:1034980010BD00BFC042030850410308ED330008C7
:1034A800F53300080134000819340008250501081F
:1034B800C10B0108012914BF4FF0FF3000207047ED
:1034C8000E4B034070B505460E4603B920B90C48AB
:1034D8004FF48861FEF740FD012E0A4C05D90848D3
:1034E80040F24241FEF738FD00E016B1236B1D4360
:1034F80002E0236B23EA0505256370BD00EE8B818E
:10350800E08C02080038024002484FF4484110F0AD
:1035180015BD00BF0C0C002070470000024B0022B4
:103528001A700120704700BF99DF0020034A012369
:103538001370034A10701846704700BF99DF0020C7
:103548009ADF0020054A137833B1054B1B780370C6
:1035580000231370012070471846704799DF002038
:103568009ADF002070B5174C22680D46D36830B139
:1035780043F02003D360144816F0C8F802E023F0A3
:103588002003D3609DB101210A46104805F012FAC4
:1035980001220E48022105F00DFA2268D36843F093
:1035A8008003D3600A4BBDE870401B681847236846
:1035B800DA6822F08002DA60DA6842F04002DA6003
:1035C80070BD00BFBCE20020FD8C0208000802406C
:1035D800ACE9002001207047024B1B6858600120AD
:1035E800704700BFBCE2002008B5054B1B6859684E
:1035F8000170C9B2034816F047F8012008BD00BFA2
:10360800BCE200200D8D020810B50446044816F0EF
:103618007DF8E16B0348BDE8104016F035B800BFEF
:10362800368D0208468D020830B53D4C236819686E
:10363800DA68C90785B00AD5D20508D51A68009294
:103648005A680092009AE26B42F00102E26319683C
:103658005A698D070AD5D00708D51A6801925A68A1
:103668000192019AE26B42F00402E26319685A6916
:1036780049070AD5D50708D51A6802925A680292EE
:10368800029AE26B42F00202E26319685A6908077B
:103698000AD5D10708D51A6803925A680392039A83
:1036A800E26B42F00802E2631A68DB68920604D50E
:1036B8009D0602D51B4B1B68984723681A68DB6870
:1036C800100609D5190607D5174B1B689847174BDD
:1036D800003018BF0120187023681A68DB6852068A
:1036E80011D55B060FD512480121002205F062F9B9
:1036F80000220F48022105F05DF9094B1A68D368CA
:1037080023F04003D360E36B054D33B12846FFF740
:103718007BFFE96B074815F0B7FF05B030BD00BF68
:10372800BCE20020B4E90020ACE90020040000203D
:10373800000802405B8D02080120704710B5064C56
:10374800204604F0DBFA2368002220465A62BDE8CE
:10375800104004F085BA00BF58E30020014804F087
:10376800CDBA00BF58E3002008B5044815F0CEFFD5
:103778000348BDE8084004F01DBB00BF6D8D02087A
:1037880058E30020014B1B68184700BFB0E9002030
:1037980072B6704762B6704738B54C1EE4B2F62C64
:1037A8002CD8194C2170002828D1184C184D2560A8
:1037B800184C194D2560194C194D2560194C1A4D96
:1037C80025601A4C20601A481A4C04601A481B4C91
:1037D80004601B481B4C0460084611461A469DF8B5
:1037E800103000F0BFF8044658B9FFF797FE38B11B
:1037F800154B1C70154B01221A7002E0022400E0E0
:103808000324204638BD00BFB8DF0020A8DF002011
:10381800B93900089CDF0020DD390008ACDF002042
:10382800693A0008A4DF0020F9390008BCDF00204D
:10383800B4E90020F13A0008ACE90020813B000817
:10384800B0E90020093C0008B0DF00208800002013
:1038580010B5064C2378012B05D1054B1B689847FA
:103868000020207010BD062010BD00BF8800002079
:10387800A8DF0020314B2DE9F3411C78002C56D1EC
:103888000DF10700FFF75EFE012803464DD19DF8B4
:103898000720012A0CD0022A4BD1294E294A306828
:1038A800294D01782B70117023469046344616E056
:1038B800264C274B22491B68264A20469847002851
:1038C80033D1254A237812789A4201D0002B2CD183
:1038D8000220FFF72BFE28E00133102B0BD01F4EE0
:1038E80016F83370DA0037B18F42F5D1B318194999
:1038F8005B6898472870154B1B78B3B12A78154D2B
:1039080062B101232B8098F80030216863F07F03AF
:103918000B702B882168581C2880CA540E4A104BFB
:1039280010781B6821682A889847002002E0062042
:1039380000E0204602B0BDE8F08100BF880000200A
:10394800B4DF0020C0DF0020B2DF0020B1DF00209C
:10395800A4DF0020A0DF0020B8DF0020080000203E
:10396800ACDF002070B50E4614461D46FFF710FF69
:103978003046214608222B46FFF72CFE01280FD19E
:10398800B4F5964F97BF094823206400B0FBF4F0C4
:1039980080B2FFF7D1FE01280CBF0024032400E009
:1039A8000324FFF7F7FE204670BD00BFA07F170075
:1039B80008B5FFF7EDFE064B002101201970FFF74F
:1039C800D1FDFFF7BBFEBDE80840FFF7E3BE00BF2F
:1039D800CDDF002008B5FFF7DBFE00200146FFF72A
:1039E800C1FDFFF7BBFEBDE80840FFF7D3BE0000EE
:1039F8002DE9F041164D80460E461746FFF7C8FEE2
:103A08002B889BB2FF2B05D91248134B9D2100220E
:103A180015F01EFD2B889BB2032B01D8052411E05D
:103A280029880E4C89B2204600F018F90028F5D1F3
:103A38002346044613F8012B88F800202A88033A05
:103A48003A803360FFF7A6FE2046BDE8F08100BF4C
:103A5800CADF0020808D0208A58D0208C0E9002079
:103A68002DE9F04180460E461746FFF791FE194BA7
:103A78001D78EDB2012D27D1174C184B2580701EEB
:103A880006F8018C1860238817FA83F292B2228014
:103A9800218889B200F0E2F8238811499BB25A1CA8
:103AA80092B22280C2B2CA5423889BB25A1C92B2E4
:103AB800C0F307202280C8540A4B002029461D70F5
:103AC8000024FFF74FFD00E00524FFF763FE2046C2
:103AD800BDE8F081CDDF0020C8DF0020C4DF002072
:103AE800C0E90020CCDF00201D4B1B7807B52BB1A7
:103AF8001C481D4BE721002215F0AAFC0DF1070018
:103B0800FFF772FD194B1A78032A24D8DFE802F070
:103B180021021021164900220A800A8892B2501CFC
:103B280080B2088013499DF80700885402220FE0EC
:103B38000F4A118889B2FF2909D813889BB2591CEA
:103B480089B211800B4A9DF80710D15401E0032275
:103B58001A70FFF7F3FD002003B05DF804FB00BF07
:103B6800CCDF0020808D0208CA8D0208CDDF00203E
:103B7800CADF0020C0E90020F8B51B4B1878C0B296
:103B8800012806D019481A4B4FF49171002215F0FC
:103B98005FFC184F3B7803F0FF0613B1012E05D0E8
:103BA8001FE03146FFF7DEFC35461BE0124D2C883E
:103BB800A4B264B1114C23681878FFF70DFD23688F
:103BC800013323602B88013B9BB22B8009E0032043
:103BD800FFF7ACFC214605463046FFF7C3FC3C70B6
:103BE80000E000252846F8BDCDDF0020808D0208C2
:103BF800E58D0208CCDF0020C8DF0020C4DF0020EC
:103C080038B5134B1878C0B202281D4603D00328D4
:103C180017D028B900E00120FFF788FC044611E01E
:103C28001A7802F0FF046AB11A78022A09D01B78C0
:103C3800032B06D00748084B4FF4AE71002215F04D
:103C480007FC0024FFF78AFD01232B70204638BDAE
:103C5800CDDF0020808D0208008E0208FF2310B5FA
:103C68001C46013989B24FF6FF72914208D010F80C
:103C7800012B5A40044B9B5C6340044CA45CF0E766
:103C880043EA042010BD00BF638F0208638E020858
:103C9800082AF8B5164605D90E480F4B38210022D8
:103CA80015F0D6FBCD086C1C0122B240075D465DBD
:103CB800013AA1EBC50192B28A4046EA072689B2C9
:103CC80026EA02028B4013439BB243551B0A035555
:103CD800F8BD00BF6B9002089890020830B5CC0878
:103CE8000319A1EBC4015D78035D43EA05200123B4
:103CF80089B293400841013B1840C0B230BD000072
:103D080007289ABF014B185C04207047639002088B
:103D18000B88052B70B50C462ED1C57802794178F1
:103D2800837842EA0522551EADB240F2CE76B542FE
:103D380022D8002525800125057025880135258094
:103D480012F0070F4FEAD20518BF0135EDB24570E2
:103D5800268843EA0121013601312680023089B2E2
:103D68000023FDF727FE18B1BDE87040FFF7C8BF74
:103D780022881544258070BD032070BD0B88052B53
:103D880013B51CD1027941788378C2B9C478601E12
:103D9800C0B2FD2813D9FF2C8DF8052043EA012174
:103DA80008BF01228DF804200131012201A889B23F
:103DB8001346FDF7FFFD20B1FFF7A2FF01E0032046
:103DC800FFE702B010BDF8B50B88052B0C4624D9C7
:103DD8000379C27845788178467943EA022212F05D
:103DE800070F4FEAD20302F1FF3718BF0133B7F5C7
:103DF800F66FDBB211D2B3420FD141EA052101318E
:103E0800063089B20123FDF7D5FD18B1BDE8F840A9
:103E1800FFF776BF05222280F8BD0320F8BD000019
:103E280038B5064B1C880D46224605490134013039
:103E3800FDF7ECF82C80002038BD00BFCEDF002055
:103E4800D0DF00200B88052B70B50C462DD1C57826
:103E580002794178837842EA0522551EADB240F2D4
:103E6800CE76B54221D80025258002250570258803
:103E78000135258012F0070F4FEAD20518BF01352A
:103E8800EDB24570268843EA0121013601312680CA
:103E9800023089B2FDF706FE18B1BDE87040FFF7A1
:103EA8002FBF22881544258070BD032070BD0B8864
:103EB800052B70B50C4624D1C578027941788378F2
:103EC80042EA0522551E7B2D1BD800252580042596
:103ED800057025885600013525804670258843EAF7
:103EE8000121013501312580023089B2FDF708FD35
:103EF80018B1BDE87040FFF703BF22883244228022
:103F080070BD032070BD08B50B88052B0FD18378D1
:103F1800417843EA012101310122033089B2134675
:103F2800FDF70CFD28B1BDE80840FFF7E9BE032006
:103F380008BD08BD0B88052B70B50C461DD9037943
:103F4800C27845788178467943EA0222531E772B56
:103F580013D85300DBB29E420FD141EA052101314B
:103F6800063089B20123FDF7E9FC18B1BDE87040BD
:103F7800FFF7C6BE0522228070BD032070BDF8B5CC
:103F88000B88052B0C4625D1057947788178AEB288
:103F9800731E7C2B4FF003021CD800232380027071
:103FA80022886D00013222804570228841EA07216B
:103FB800013201312280023089B23246FDF7BEFC5F
:103FC80018B1BDE8F840FFF79BBE228802EB460611
:103FD8002680F8BD0320F8BD2DE9F8430B88092B8E
:103FE80004460D4640D90379C67890F80180877851
:103FF800A1794079E27994F809E043EA062606F1C6
:10400800FF3CBCF17C0F237A31D843EA0222531ECD
:10401800782B2CD8BEEB420F29D141EA002101317F
:10402800012304F10A0089B2FDF788FC03460BBBA3
:1040380017222B8022702A884FEA460901322A80EB
:1040480084F801902A8847EA0821013201312A8040
:10405800A01C89B23246FDF771FC58B92B889944E7
:10406800A5F80090BDE8F8830020BDE8F883032098
:10407800BDE8F883BDE8F843FFF742BE84B02DE9F8
:10408800F047064609A880E80E00274BDDF828A06F
:10409800DDF82C800C9C0D9F0E9D9E42894603D016
:1040A8002248DA21FDF758FF39F4005303D01F489E
:1040B800DB21FDF751FF3AF4806303D01B48DC2174
:1040C800FDF74AFF38F4007303D01848DD21FDF7E7
:1040D80043FF34F4006306D0B4F5805F03D013487F
:1040E800DE21FDF739FF37F4804303D00F48DF2185
:1040F800FDF732FFFF2D03D90C48E021FDF72CFF17
:104108004AEA0909726849EA080848EA04043C438B
:1041180022F4FD43254323F07F032B437360BDE85E
:10412800F047002004B07047002C0140A590020819
:10413800D0F88000704703230360002070470068B0
:1041480000F003007047000038B54B683F2B054668
:104158000C4604D91B4840F26511FDF7FDFEA36823
:1041680033F0400206D0C02B04D016484FF4B37188
:10417800FDF7F2FEE36833F4807207D0B3F5007FF1
:1041880004D0104840F26711FDF7E6FE236933F4C6
:10419800806304D00B484FF4B471FDF7DDFE23684B
:1041A800AB60A1686368EA681943E3680B43216957
:1041B800194322F47F6323F00F030B43EB600020C5
:1041C80038BD00BFA59002080069C0B27047000062
:1041D80013B50023019330F00C03044604D00648BD
:1041E80040F29311FDF7B8FE044B23440193019B61
:1041F800186802B010BD00BFA5900208142C014039
:1042080038B54B68B3F1007F05460C4604D3254802
:104218004FF4D471FDF7A0FEA36833F0300223F009
:1042280010010CD0402A0AD0802A08D0C02906D014
:10423800E02B04D01B4840F2A911FDF78DFEE3687E
:1042480033F0020304D017484FF4D571FDF784FE0C
:10425800236933F0040304D0124840F2AB11FDF790
:104268007BFE6369012B04D90E484FF4D671FDF724
:1042780073FE23686B62E268A3686168A9621A43E7
:10428800236909481343626943EA020415F0FCF9FB
:10429800EB6A064823F0F7032343EB6215F036FA7E
:1042A800002038BDA5900208F59002080891020880
:1042B800F8B503680F2B044604D9A24840F215113B
:1042C800FDF74AFE2368D80703D42368990756D414
:1042D800B7E06368012B06D9052B04D099484FF441
:1042E8008D71FDF739FE984B9A6802F00C02042A8A
:1042F80007D09A6802F00C02082A0BD15B685A02B0
:1043080008D5914B1B689B03DFD56368002BDCD174
:104318000120F8BD8D4D00232B7004F0B1FB06463B
:10432800894B1B689F0308D504F0AAFB41F2883328
:10433800801B9842F4D90320F8BD23792B70636859
:1043480073B104F09DFB05467F4B1B689803BCD4F2
:1043580004F096FB41F28833401B9842F4D9EAE70F
:1043680004F08EFB0546784B1B689903ADD504F025
:1043780087FB41F28833401B9842F4D9DBE7E368B6
:10438800012B04D96F484FF4AD71FDF7E5FD2369A2
:104398001F2B04D96B4840F25B11FDF7DDFD6A4B1A
:1043A8009A6812F00C0F07D09A6802F00C02082ADB
:1043B80018D15B685A0215D4634A13689B0702D563
:1043C800E368012BA4D11168F82393FAA3F3B3FA95
:1043D80083F32069DBB2984021F0F80140EA010339
:1043E80013602EE0E2685A4BEAB101221A6004F029
:1043F80047FB054654490B689F0705D404F040FB6A
:10440800401B6428F6D996E70A68F82393FAA3F3C1
:10441800B3FA83F32069DBB2984022F0F80240EA4D
:1044280002030B600DE01A6004F02AFB0546464BB8
:104438001B689E0705D504F023FB401B6428F6D9AA
:1044480079E723681D0703D42368580728D452E066
:104458006369012B04D93B484FF4CD71FDF77CFD0E
:1044680062693C4B72B101221A6004F009FB0546EF
:10447800354B5B6F9907E7D404F002FB401B6428B7
:10448800F6D958E71A6004F0FBFA05462E4B5B6F25
:104498009A07D9D504F0F4FA401B6428F6D94AE7FC
:1044A800A368012B30D8284A136C43F08053136457
:1044B800A2F5E432136843F48073136004F0E0FA61
:1044C8000546254B1B68DB0526D5244D00232B709C
:1044D80004F0D6FA06461C4B1B6F9F0722D4237A9A
:1044E8002B70A368012B3BD104F0CAFA0546164B82
:1044F8001B6F9E071ED5A369022B40D911484FF4A4
:104508000271FDF729FD3AE0052BCCD00D484FF498
:10451800E271FDF721FDC6E704F0B2FA401B6428FA
:10452800CFD908E704F0ACFA41F28833801B9842EF
:10453800D1D900E704F0A4FA41F28833401B98422D
:10454800D5D9F8E626910208003802400238024020
:1045580000004742800E4742007000407038024019
:1045680004F08EFA0546504B1B6F9807C3D504F02C
:1045780087FA41F28833401B9842F4D9DBE6A269F6
:104588000AB90020F8BD484B9B6803F00C03082BC0
:104598003FF4BEAE022A454D75D1E36933F480037A
:1045A80004D0434840F21121FDF7D6FC236A3F2B83
:1045B80004D93F4840F21221FDF7CEFC636AC03BA4
:1045C800F02B04D93A4840F21321FDF7C5FCA36A41
:1045D80023F00402022A08D0042B06D0082B04D0AA
:1045E80033484FF40571FDF7B7FCE36A043B0B2B26
:1045F80004D92F4840F21521FDF7AEFC00232B60AB
:1046080004F03EFA0746284E3368990105D504F0B0
:1046180037FAC01B6428F6D98DE647F6C07090FAC1
:10462800A0F0B0FA80F04FF4403191FAA1F1B1FA5C
:1046380081F14FF0706292FAA2F2B2FA82F2276A1E
:10464800E3693B4343F00057636AC0B2834047EADB
:104658000300A36A5B08C9B2013B8B40D1B2E26A8E
:1046680003438A401343736001232B6004F008FA64
:1046780004460D4B1B689A0183D404F001FA001B11
:104688006428F6D957E600232B6004F0F9F90446AC
:10469800054B1B689B017FF574AF04F0F1F9001B13
:1046A8006428F5D947E600BF003802406000474259
:1046B800269102080368013B0E2B70B504460D468F
:1046C80004D9A54840F27321FDF746FC0F2D04D903
:1046D800A1484FF41D71FDF73FFCA04B1A6802F08A
:1046E8000F02954240F28180EAB21A701B6803F00B
:1046F8000F03AB4201D0012070BD23689E071DD572
:10470800A36833F0800212D023F02002902A0ED042
:1047180023F04002A02A0AD023F01002C02A06D0B3
:10472800F02B04D08C4840F28A21FDF715FC8C4907
:104738008B6823F0F002A36813438B602368DD07BE
:1047480004D42368580700F1CE80E4E06368022BA4
:1047580004D9814840F29121FDF7FEFB6268804B45
:10476800012A196802D111F4003F06E0022A02D199
:1047780011F0007F01E011F0020FBCD0996821F020
:1047880003010A439A6004F07BF96368012B05462C
:104798000ED1734B9B6803F00C03042BD1D004F0AB
:1047A8006FF941F28833401B9842F2D9032070BD5B
:1047B800022B14D16A4B9B6803F00C03082BC0D062
:1047C80004F05EF941F28833401B9842F2D9EDE7D4
:1047D80004F056F941F28833401B9842E6D8604B02
:1047E8009B6813F00C0FF3D1ABE7236899071DD52D
:1047F800A36833F0800212D023F02002902A0ED052
:1048080023F04002A02A0AD023F01002C02A06D0C2
:10481800F02B04D0504840F2D921FDF79DFB5049B8
:104828008B6823F0F002A36813438B602368DA07D0
:1048380009D44A4BEAB21A701B6803F00F03AB4263
:104848007FF459AF7DE76368022B04D942484FF4DF
:104858003871FDF781FB6268414B012A196802D162
:1048680011F4003F06E0022A02D111F0007F01E0B6
:1048780011F0020F3FF43FAF996821F003010A439A
:104888009A6004F0FDF86368012B06460DD1344B9D
:104898009B6803F00C03042BCBD004F0F1F841F231
:1048A8008833801B9842F2D980E7022B15D12C4B14
:1048B8009B6803F00C03082BBBD004F0E1F841F22D
:1048C8008833801B9842F2D970E704F0D9F841F296
:1048D8008833801B98423FF669AF214B9B6813F0E1
:1048E8000C0FF2D1A5E7E36833F480520CD023F41F
:1048F8000062B2F5A05F07D0B3F5C05F04D01648D8
:104908004FF44C71FDF728FB15498B6823F4E052EE
:10491800E36813438B6023681B0718D5236933F4B6
:1049280080520CD023F40062B2F5A05F07D0B3F533
:10493800C05F04D0084840F23731FDF70DFB084A44
:104948002169936823F4604343EAC10393600F200D
:1049580004F066F8002070BD26910208003C024071
:104968000038024030B51D4CA36803F00C03042B3B
:1049780030D0082B30D16268636802F03F0513F429
:10498800800F47F6C071636891FAA1F1B1FA81F11D
:1049980047F6C07004BF124AB2FBF5F2C9B200EA8A
:1049A800030020FA01F01CBF0E49B1FBF5F202FB2F
:1049B80000F30A4A50684FF4403292FAA2F2B2FA6F
:1049C80082F2D2B200F44030D04001304000B3FB54
:1049D800F0F030BD034830BD014830BD003802401A
:1049E8000024F40040787D0108B5FFF7BBFF094BB0
:1049F8009A68F02393FAA3F3B3FA83F302F0F00270
:104A0800DBB222FA03F3044AD35CD840034B1860A4
:104A180008BD00BF003802401691020800000020BF
:104A280008B5FFF7E1FF084B9A684FF4E05393FA93
:104A3800A3F3B3FA83F302F4E052DBB222FA03F3EE
:104A4800024AD35CD84008BD0038024016910208DB
:104A580008B5FFF7C9FF084B9A684FF4604393FA0B
:104A6800A3F3B3FA83F302F46042DBB222FA03F34E
:104A7800024AD35CD84008BD0038024016910208AB
:104A88000F2303600B4B9A6802F0030242609A6896
:104A980002F0F00282609A6802F4E052C2609B68F9
:104AA80003F46043DB080361034B1B6803F00F0347
:104AB8000B60704700380240003C024003685A6BA4
:104AC80012F0450FFBD05A6B520703D504229A63A4
:104AD80003207047586B10F0010015BF012040F209
:104AE800FF5298639A63704770B5054600680E4692
:104AF800436B13F0450FFBD0436B5B0703D50423CF
:104B08008363032070BD436B13F0010402D00123BB
:104B1800836339E0FFF758FBB04201D0102070BD25
:104B28002B6840F2FF529A632046FFF751FB284B4F
:104B380003404BB3002829DB450029D4840029D43D
:104B4800C10029D4020129D4430129D4C60129D49A
:104B5800050229D44402E1D4810227D4C20227D411
:104B6800030327D4460327D4850327D4C40327D4B3
:104B7800010427D4420427D4830427D410F0080F53
:104B880014BF1A20002070BD184670BD1C2070BDCF
:104B9800092070BD0A2070BD0B2070BD0C2070BDAF
:104BA8000D2070BD0E2070BD0F2070BD112070BD8E
:104BB800122070BD132070BD142070BD152070BD6B
:104BC800162070BD172070BD182070BD192070BD4B
:104BD80008E0FFFDF0B58FB000230546019302936E
:104BE8001024402206930E464FF4806303A9082739
:104BF80000680397049405920793FFF7A5FA2846DF
:104C08002146FFF771FF002861D16B6A2868A3402D
:104C180003A9372403930494FFF796FA21462846FC
:104C2800FFF762FF0446002851D14FF0FF33089385
:104C380030230A9302230B930C90012308A92868B8
:104C48000D930997FFF7DCFA039403A93324286826
:104C58000494FFF779FA28462146FFF745FF002814
:104C680035D16C462868426B40F22A6313403BB941
:104C7800436B9F02F7D5FFF75BFA44F8040FF1E79F
:104C8800436B190703D50823836304201FE0436B94
:104C98009A0702D50223836318E0436B9B0603D56A
:104CA80020238363062012E0436B13F4007304D0BF
:104CB8004FF400738363072009E040F2FF528263D8
:104CC800019A12BA7260029A12BA326018460FB08C
:104CD800F0BD70472DE9F0418CB08E46139E0168F7
:104CE800129D9846012E4FF00003CB628364036542
:104CF800C36488BF01234365CB6B43F44A7343F015
:104D08000203CB632A4B04461746806D01221A60C2
:104D1800284BC363284B836405FB06F38031724636
:104D28009B0801F053FF236A2068022B4FF04003D1
:104D380008BF7F0A03934FF0000304BF47EAC85730
:104D48004FF400754FF01008049301A94FF48063E5
:104D58000195CDF808800593FFF7F6F920464146FE
:104D6800FFF7C2FE08BB4FF0FF330693902308936A
:104D7800022309930A90012306A9754320680B931F
:104D88000795FFF73DFA012E8CBF1223112301A9C5
:104D9800206802930197FFF7D7F9012E20468CBFB0
:104DA80012211121FFF7A0FEE0640CB0BDE8F081EC
:104DB8008C852542974F0008B34F00082DE9F04134
:104DC8008CB01746139E0268DDF84880012E1C46F9
:104DD8004FF00003D36283640365C3648CBF03236D
:104DE80002234365D36B43F44673054643F002033D
:104DF800C06DD3633B4BC3633B4B836408FB06F333
:104E080080329B0801F0E2FE384B01221A602B6ABF
:104E1800022B09D136484FF4007114F035FC7F0A93
:104E280047EAC4574FF40078402303930023102423
:104E3800049301A94FF48063286802940593CDF880
:104E48000480FFF781F921462846FFF74DFE044606
:104E58002146284814F018FC002C3FD1254821464B
:104E680014F012FC012E06D8234814F04FFC182326
:104E78000293214805E0214814F048FC19231F48F3
:104E8800029314F043FC2868019701A9FFF75CF925
:104E9800012E284605D91921FFF726FE0446184891
:104EA80004E01821FFF720FE04461648214614F0B6
:104EB800EBFB9CB94FF0FF3306939023089306FB56
:104EC80008F601232868079606A909940A940B9303
:104ED800FFF796F9EC640C4814F018FC20460CB067
:104EE800BDE8F081C14F0008EB4F00088C852542D2
:104EF8007591020884910208949102089F91020812
:104F0800AA910208C3910208DD9102087047704710
:104F180003685A6BD10510B5044609D54FF4807261
:104F28009A63012383640023C364FFF7EFFF25E03E
:104F38005A6B920703D502229A63C2641CE05A6B2B
:104F4800110703D508229A63042314E05A6B9206CA
:104F580003D520229A6306230DE05A6BD10603D5A8
:104F680010229A63052306E05A6B920506D54FF482
:104F780000729A630723E364FFF7C9FF2268D36BC3
:104F880023F4434323F03A03D36310BD704710B5AD
:104F9800846B01232365A36C002BFCD001F05EFE1B
:104FA800A06DFFF7F3FF10BD704708B5836B986DD0
:104FB800FFF7FAFF08BD704738B5846B0123054633
:104FC8002365064814F0A2FBA36C002BFCD02846EE
:104FD80001F044FEE06DFFF7EEFF38BDF2910208E4
:104FE800704708B5836BD86DFFF7FAFF08BD026AF2
:104FF80081F85620426AA1F8542090F82B200346E5
:1050080090090870C2F3830002F0030248708A70A6
:1050180093F82A20CA7093F829200A7193F8282057
:105028004A71DA6A100E0001C880C888C2F30742C4
:1050380080B240EA121002F00F02C8800A7293F898
:105048002D20D0094872C2F380108872C2F3401034
:10505800C872C2F300100873002048732DE9F043AA
:105068001C6A012C3DD802F0030292020A610A6907
:1050780093F82C4042EA84020A610C6993F83320C1
:1050880044EA92140C61C2F3C20402F007020C75E0
:105098004A7593F8322054098C75C2F3820402F0E1
:1050A80003025200CC750A760C7E93F8312044EA4C
:1050B800D2140C760E690D7E0F7A0124023504FA9B
:1050C80007F7AC404FEAE4790136A4FB074507FB34
:1050D8000955A4FB068906FB05990F65C1E91289E4
:1050E80023E0022C20D1DA6A02F03F0212040A619E
:1050F8001A6B0C69150E44EA05240C610C69C2F39D
:1051080007452C430C610C690025013445F1000565
:10511800ED0445EA5435E4048C644FF40074C2F39A
:105128000722CD640C6500E02920C2F3801402F048
:105138003F0252004C768A761A6B8D7EC2F3C014F9
:105148002C4302F07F028C76CA7693F83720D40974
:105158000C77C2F341144C77C2F3820402F00302C5
:1051680092008C77CA7793F83620CC7F44EA921461
:10517800CC77C2F3401481F8204002F001020024E9
:1051880081F8214081F8222093F83520D40981F84C
:105198002340C2F3801481F82440C2F3401481F8FC
:1051A8002540C2F3001481F82640C2F3810402F0BE
:1051B800030281F8274081F828205A6B0124C2F3A2
:1051C800460281F8292081F82A4093F83B2081F88B
:1051D8002C209A6BC2F307452D02CD85CD8DAEB23A
:1051E800C2F3072535431206CD850A63DA6B0D6BCA
:1051F800160E45EA06450D630D6BC2F3074645EAF0
:1052080006250D630D6BC2F307263543D2B20D6335
:1052180081F8342093F8432081F835201A6CC2F3C2
:1052280007452D068D638D6BC2F3072645EA0645B3
:105238008D638D6BD2B245EA02228A638D6B5A6CFC
:1052480045EA12658D6391F83C50C2F3074245EA7E
:10525800121502F00F02120281F83C50CA875B6CEB
:10526800CA8F95B2C3F307222A43C3F34603CA87FA
:1052780081F8403081F84140BDE8F0832DE9F047DE
:1052880090B0002504460E468DF81250FFF721FD18
:1052980076230F930D950E9510AB13E907008DE853
:1052A80007000A950B950C95A84F20680AAB0ECB02
:1052B800FEF7E4FE8DF8135020683D60FEF73BFFD3
:1052C800012003F0E3FB01233B6005A94FF4806351
:1052D800206809930595069507950895FEF734FF0C
:1052E8002268536B4FF48031C3F3C013002B40F096
:1052F8009B81536B0139C3F3C013F7D103238DF896
:1053080013309DF81310924814F0BEF99DF813302D
:1053180003F0FF05002B40F0B2804FF4D5730593DE
:10532800082305A90693206840230793FEF70CFF7E
:1053380023685A6B12F0450F14BF012100214FF466
:10534800803241B93AB1596B11F0450F14BF0121B0
:105358000021013AF5E7596B0AB1480703D5042241
:105368009A63032505E05A6B510646BF40229A63AB
:1053780029258DF813509DF81310764814F084F9F8
:105388009DF81320002322B9012222624FF08048A1
:1053980000E09846372505A9206805930695FEF78D
:1053A800D3FE29462046FFF79FFB8DF813009DF892
:1053B8001310694814F068F99DF8133003F0FF07DB
:1053C800002B57D10023372505A94FF0400A4FF489
:1053D80080692068059308930695CDF81CA0CDF840
:1053E8002490FEF7B1FE29462046FFF77DFB8DF895
:1053F80013009DF8133003F0FF05002B3FD148F050
:10540800004343F4801305932068CDF81CA029239A
:1054180005A906930895CDF82490FEF795FE236814
:105428005A6B12F0450FFBD05A6B520745BF042246
:10543800032540F2FF529A6358BF9A638DF81350C0
:105448009DF8133003F0FF00CBB9FEF7C1FE00282A
:1054580007F101074FF6FF7302DB9F42B2D101E06B
:105468009F4203D11B238DF8133008E0430044BF4B
:10547800022323629DF81310384814F005F99DF8AB
:105488001330DBB28DF812309DF8123003F0FF05AF
:10549800002B40F0C3802068FEF751FE002800F082
:1054A8008980236A042B20D002230693C023079304
:1054B800206805954FF4806305A908950993FEF7C0
:1054C80043FE2046FFF7FAFA002875D1FEF780FE62
:1054D800A0630420FEF77CFEE0630820FEF778FE58
:1054E80020640C20FEF774FE6064236A022B01D945
:1054F800062B3BD1032306932068402305A9079375
:10550800FEF722FE2068436B13F0450FFBD0436B78
:105518005F0703D50423836303254EE0436B13F031
:10552800010702D00125856347E0FEF74DFE0328F9
:105538007FD1236840F2FF529A633846FEF748FE4F
:1055480010F4604F0CD1000C11E000BFA080254280
:10555800089202081D920208329202084892020834
:10556800810468D4420464D4030466D40120236A05
:10557800042B22D06062092300040590069305A934
:10558800C02320680793FEF7DFFD2046FFF796FA51
:10559800054690B9FEF71CFEA0620420FEF718FE2F
:1055A800E0620820FEF714FE20630C20FEF710FED0
:1055B800606302E0252500E005468DF812509DF84D
:1055C80012305BBB20463146FFF711FD8DF8120003
:1055D8009DF8123003F0FF02ABB9B6F854302068DA
:1055E80008921B04059340230725079305A94FF448
:1055F800806309930695FEF7A7FD20462946FFF725
:1056080073FA8DF8120004F1100393E807008DE88F
:105618000700231D0ECB2068FEF730FD9DF8120011
:10562800C0B210B0BDE8F08740F2FF539363002387
:1056380065E61025C1E71325BFE70F25BDE700BFC5
:10564800F0B5036A032B8DB005460E4600F0848042
:10565800022B00F28380B1F5805F00F08180B1F504
:10566800006F29D1002004900590FEF7B1FD80015C
:105678006ED4284604A9FFF7ADFA0446002872D173
:10568800059B590366D56B6A09901B040693402352
:105698003727089306A94FF4806328680A93079769
:1056A800FEF752FD28463946FFF71EFA0446002841
:1056B80059D10223069329E0002953D108460491C1
:1056C8000591FEF785FD820142D4284604A9FFF71B
:1056D80081FA0446002846D1059BDB033AD56B6A5C
:1056E80009901B04069340233727089306A94FF413
:1056F800806328680A930797FEF726FD28463946EF
:10570800FFF7F2F9044600282DD10690062406A9D1
:1057180028680794FEF718FD21462846FFF7E4F9A4
:10572800044600BB6B680693AB680793EB68089365
:105738006B690A93AB690B9309960CAB13E90700E5
:105748008DE8070006AB0ECB2868FEF797FC0AE049
:105758000E2408E0252406E0272005E0002003E0C9
:10576800272400E0262420460DB0F0BD30B587B0D0
:1057780000234022054601930C24049301A94FF409
:1057880080630068039205930294FEF7DDFC2846C7
:105798002146FFF7A9F907B030BD38B504460D46D4
:1057A800006DA16CE36C2A46DBB200B909B123682D
:1057B8000BE0002BFBD1002AF9D0206DA16CE36C23
:1057C800013ADBB2F1E71DB1013D5A6B9204FAD4FC
:1057D800636D012B0ED12046FFF7C8FF0DB900B944
:1057E8000420236840F2FF529A63E36C33B1E06C03
:1057F800C0B238BD002DF3D00020F2E738BD30B577
:10580800436A87B01B040193402303930023044693
:105818000D25049301A94FF4806300680295059350
:10582800FEF792FC20462946FFF75EF938B9FEF7E5
:10583800CFFCC0F34320043818BF012000E0022049
:1058480007B030BD70B504460E46006DA16CE36C20
:105858003246DBB200B909B123680BE0002BFBD15B
:10586800002AF9D0206DA16CE36C013ADBB2F1E7B4
:105878001EB1013E5A6BD204FAD4636D032B16D1C4
:105888002046FFF773FF05460EB900B904252368C3
:1058980040F2FF529A63E36C13B1E06CC0B270BD82
:1058A8002046FFF7ACFF0028FAD1284670BD002E2D
:1058B800ECD00025EBE72DE9F0410D4604461646ED
:1058C80003F0DEF8C5F3074807462368B8F1010F6F
:1058D8000CBF58699869C04380B2284214BF0120A0
:1058E800002028B35A69520510D51A6842F400728C
:1058F8001A606FF480625A610423A36301200023B5
:1059080084F8350084F83430BDE8F081731CDCD0AD
:1059180046B9012384F83530002384F83430032055
:10592800BDE8F08103F0ACF8C01BB042CDD9F0E778
:10593800BDE8F0812DE9F0410E461D46044690462B
:1059480003F09EF8330C0746B8F1000F34D15FFA24
:1059580083F82368B8F1010F0CBF5B699B69DB43CF
:105968009BB2334214BF01230023C3B16A1CF0D099
:10597800CDB103F085F8C01BA842EAD913E06B1C2F
:1059880010D12368B8F1010F0CBF5B699B69DB4339
:105998009BB233420CBF01230023002BEFD1002020
:1059A800BDE8F0815DB9012384F83530002384F81F
:1059B80034300320BDE8F0815FFA83F8E1E703F0B3
:1059C8005FF8C01BA842DCD9EDE7000070B51646A9
:1059D8000268136843F4807313600D4600224FF089
:1059E800011133460446FFF7A5FF20BB236922684F
:1059F800B3F5804F03D105F0FE05156113E005F4FA
:105A08004073DB1143F0F003136120460B49324623
:105A1800FFF751FF20B1A36B042B0CD1012070BDFF
:105A28002368EDB21D61204605493246FFF743FF62
:105A38000028F0D100E0032070BD00BF080001007D
:105A4800020001000368F7B516461A6842F480623E
:105A58001A601A6842F480721A600D4600224FF0EC
:105A6800011133460446FFF765FFD0B92369226860
:105A7800B3F5804F04D145F00105EDB2156133E06F
:105A880005F44073DF0947F0F003136120461B4912
:105A98003246FFF710FF30B1A36B042B01D1012070
:105AA80029E0032027E023681549EDB232461D613D
:105AB8002046FFF700FF02460028EDD12368596908
:105AC8000191996901910199196841F480711960EE
